:1000000033C0000041C000003FC000003DC0000000
:100010003BC0000039C0000037C0000035C0000000
:1000200033C0000031C000002FC00000CBC0000072
:100030002BC0000029C0000027C0000025C0000020
:1000400023C0000021C000001FC000001DC0000030
:100050001BC0000019C0000017C0000015C0000040
:1000600013C0000011C0000011241FBECFEFD8E064
:10007000DEBFCDBF21E0A0E0B1E001C01D92A43001
:10008000B207E1F70DD0E5C0BBCFF8946091000155
:10009000709101018091020190910301789408957B
:1000A000CF93DF93CDB7DEB72C970FB6F894DEBFB2
:1000B0000FBECDBF579A569A559A549A5398529854
:1000C0005F985E985D9A5C985B9A5A9A80918100DD
:1000D0008A608093810087E08093890080ED80931F
:1000E000880080916F00826080936F007894412C2B
:1000F000512C32011D821E821F821886812C912C68
:100100005401839418E2E12EF12C00E010E0E9861E
:10011000FA860B871C87B9DF7B018C012D813E811C
:100120004F815885E21AF30A040B150B68EE73E051
:1001300080E090E029853A854B855C8568D02E1556
:100140003F054007510770F45F9904C05F9A5E9ABB
:100150005D9803C05F985E985D9A97DF6D837E839C
:100160008F83988792DF6B017C01C418D508E6085D
:10017000F70868EE73E080E090E0A501940147D0B5
:100180002C153D054E055F0540F45C9902C05C9A54
:1001900001C05C987ADF2B013C014B990BC089852B
:1001A0009A85AB85BC850196A11DB11D89879A876B
:1001B000AB87BC874A99AFCF9FEF891A990AA90AE2
:1001C000B90AA9CF1F920F920FB60F9211248F93E5
:1001D0009F93AF93BF938091000190910101A091F3
:1001E0000201B09103010196A11DB11D8093000190
:1001F00090930101A0930201B0930301BF91AF91CD
:100200009F918F910F900FBE0F901F901895A1E2B4
:100210001A2EAA1BBB1BFD010DC0AA1FBB1FEE1F80
:10022000FF1FA217B307E407F50720F0A21BB30BCB
:10023000E40BF50B661F771F881F991F1A9469F747
:1002400060957095809590959B01AC01BD01CF01A3
:060250000895F894FFCFB1
:00000001FF
