:1000000033C0000041C000003FC000003DC0000000
:100010003BC0000039C0000037C0000035C0000000
:1000200033C0000031C000002FC0000096C00000A7
:100030002BC0000029C0000027C0000025C0000020
:1000400023C0000021C000001FC000001DC0000030
:100050001BC0000019C0000017C0000015C0000040
:1000600013C0000011C0000011241FBECFEFD8E064
:10007000DEBFCDBF21E0A0E0B1E001C01D92A43001
:10008000B207E1F70DD0A2C0BBCFF8946091000198
:10009000709101018091020190910301789408957B
:1000A000569A579A55985E985F985D9A809181000C
:1000B0008A608093810087E08093890080ED80933F
:1000C000880080916F00826080936F007894412C4B
:1000D000512C3201C12CD12C7601C1E0D0E008EEC8
:1000E00013E01E0188E2280E311CCFDF4B015C01BA
:1000F0008C189D08AE08BF08C801BE0153D0CB01C3
:10010000A0E0B0E088159905AA05BB0540F45E990A
:1001100002C05E9A01C05E98B8DF6B017C01B5DF5A
:100120004B015C0184189508A608B708C801B10105
:1001300039D0CB01A0E0B0E088159905AA05BB0530
:1001400040F45F9902C05F9A01C05F989EDF2B0167
:100150003C014D99C6CF2196C4CF1F920F920FB686
:100160000F9211248F939F93AF93BF9380910001BF
:1001700090910101A0910201B09103010196A11D8E
:10018000B11D8093000190930101A0930201B093EF
:100190000301BF91AF919F918F910F900FBE0F9070
:1001A0001F901895AA1BBB1B51E107C0AA1FBB1FBC
:1001B000A617B70710F0A61BB70B881F991F5A95F3
:1001C000A9F780959095BC01CD010895F894FFCFD3
:00000001FF
