:1000000033C0000039C0000037C0000035C0000018
:1000100033C0000031C000002FC000002DC0000020
:100020002BC0000029C0000027C0000025C0000030
:1000300023C0000021C000001FC000001DC0000040
:100040001BC0000019C0000017C0000015C0000050
:1000500013C0000011C000000FC000000DC0000060
:100060000BC0000009C0000011241FBECFEFD8E074
:10007000DEBFCDBF02D0F1C1C3CF579A56985F986B
:100080005E9AC1E0D0E088EEE82E83E0F82E00E929
:1000900011E05F9AC701BE0170D0072E000C880BDB
:1000A000990BC4D02B013C0120E030E04AE755E435
:1000B00049D14B015C0120E030E040E85FE384D0AF
:1000C00087FD1EC020E03FEF4FE757E4C501B401B4
:1000D00035D118168CF420E030E040E251E4C30141
:1000E000B20130D175D06115710579F0C801019761
:1000F000F1F761507109F7CFC501B40169D002C0B1
:1001000061E070E0CB010197F1F75F9820E030E00B
:1001100040E85FE3C501B40157D087FD1EC020E071
:100120003FEF4FE757E4C501B40108D118168CF42E
:1001300020E030E040E251E4C301B20103D148D0F5
:100140006115710579F0C8010197F1F761507109E6
:10015000F7CFC501B4013CD002C061E070E0CB0133
:100160000197F1F74E9995CF219680E197E2F8013A
:100170003197F1F70197D9F78CCF97FB072E16F43B
:10018000009406D077FD08D00BD007FC05D03EF4D4
:10019000909581959F4F0895709561957F4F089533
:1001A000AA1BBB1B51E107C0AA1FBB1FA617B7079D
:1001B00010F0A61BB70B881F991F5A95A9F78095B9
:1001C0009095BC01CD0108956CD008F481E00895AC
:1001D00094D088F09F5790F0B92F9927B751A0F08D
:1001E000D1F0660F771F881F991F1AF0BA95C9F7CB
:1001F00012C0B13081F09BD0B1E0089598C0672F54
:10020000782F8827B85F39F0B93FCCF3869577957A
:100210006795B395D9F73EF4909580957095619563
:100220007F4F8F4F9F4F0895E89409C097FB3EF48E
:1002300090958095709561957F4F8F4F9F4F992333
:10024000A9F0F92F96E9BB279395F69587957795B1
:100250006795B795F111F8CFFAF4BB0F11F460FF71
:100260001BC06F5F7F4F8F4F9F4F16C0882311F0C9
:1002700096E911C0772321F09EE8872F762F05C0DD
:10028000662371F096E8862F70E060E02AF09A9578
:10029000660F771F881FDAF7880F9695879597F96D
:1002A0000895990F0008550FAA0BE0E8FEEF161607
:1002B0001706E807F907C0F012161306E407F5075A
:1002C00098F0621B730B840B950B39F40A2661F0CE
:1002D000232B242B252B21F408950A2609F4A14071
:1002E000A6958FEF811D811D089557FD9058440FED
:1002F000551F59F05F3F71F04795880F97FB991F85
:1003000061F09F3F79F08795089512161306140641
:10031000551FF2CF4695F1DF08C0161617061806CE
:10032000991FF1CF86957105610508940895E894A9
:10033000BB2766277727CB0197F90895B2DF08F42A
:100340008FEF08950BD078C069D028F06ED018F0E8
:10035000952309F05AC05FC01124EACFC6DFA0F38D
:10036000959FD1F3950F50E0551F629FF001729F4A
:10037000BB27F00DB11D639FAA27F00DB11DAA1F69
:10038000649F6627B00DA11D661F829F2227B00DB6
:10039000A11D621F739FB00DA11D621F839FA00D41
:1003A000611D221F749F3327A00D611D231F849F91
:1003B000600D211D822F762F6A2F11249F575040E8
:1003C0008AF0E1F088234AF0EE0FFF1FBB1F661F83
:1003D000771F881F91505040A9F79E3F510570F03C
:1003E00014C0A6CF5F3FECF3983EDCF3869577957B
:1003F0006795B795F795E7959F5FC1F7FE2B880F37
:10040000911D9695879597F9089597F99F6780E8CC
:1004100070E060E008959FEF80EC089500240A9456
:100420001616170618060906089500240A941216CF
:100430001306140605060895092E0394000C11F402
:10044000882352F0BB0F40F4BF2B11F460FF04C0AF
:0E0450006F5F7F4F8F4F9F4F0895F894FFCF3F
:00000001FF
